:020000040040BA
:10000000182740202D1240002912400029124000DC
:10001000291240002912400029124000000000006F
:100020000000000000000000000000002912400055
:10003000291240000000000029124000291240004F
:1000400029124000291240002912400029124000C4
:1000500029124000291240002912400029124000B4
:1000600029124000000000008D0D4000A10D40004D
:10007000B50D40002912400029124000291240000D
:10008000C90D4000DD0D400029124000291240003A
:100090002912400029124000291240002912400074
:1000A000C91440002912400029124000F9144000F0
:1000B0002912400029124000291240002912400054
:1000C0002912400029124000291240002912400044
:1000D000000000002912400000000000291240002A
:1000E0002912400029124000291240002912400024
:1000F0002912400029124000291240002912400014
:100100002915400029124000291240002912400000
:100110002912400000000000000000000000000064
:1001200029124000291240002912400029124000E3
:10013000291240000000000029124000291240004E
:1001400010B5054C237833B9044B13B10448AFF311
:1001500000800123237010BD4C04402000000000EB
:100160006C2440000C4B43B10C480D4910B5AFF363
:1001700000800C48036823B910BD0A48036833B9EE
:100180007047094B002BF7D0BDE810401847064BCD
:10019000002BF5D0184700BF000000006C24400081
:1001A000500440206C2440000000000008B5074BBC
:1001B000984203D0064B984204D008BD1520054B49
:1001C000984708BD2A20034B9847F6E70080004077
:1001D00000800540110F4000436823F47023436002
:1001E0004368090401F4702119434160704730B439
:1001F00043F69924056915F0020F03D1013CF9D1AA
:1002000001200CE0446814F0020F06D0120402F43E
:10021000702211430BB141F08071C160002030BCED
:10022000704732B900EB8100036B23F001030363D5
:10023000704700EB8100036B43F0010303637047D9
:1002400032B900EB8100036B23F0020303637047B4
:1002500000EB8100036B43F0020303637047042A41
:1002600003D06AB1082A16D0704700EB8100036BF7
:1002700023F008030363036B43F004030363704735
:1002800000EB8100036B23F008030363036B23F08F
:1002900004030363704700EB8100036B43F0080322
:1002A0000363E1E700EB81010B6B23F0F0030B63C9
:1002B0000B6B1A430A637047431E1944B1FBF0F0FD
:1002C000431EFE2B94BF00B24FF0FF3070477AB14F
:1002D00010B4144600EB81010B6B23F47F430B63D6
:1002E0000A6B42EA04220A6300205DF8044B70475F
:1002F0004FF0FF30704710B4890143180224445076
:100300004FF0FF319962196A5A605DF8044B7047EB
:10031000890105234350704700EB8111CA61704782
:1003200000EB81114A62704700EB8111086A704747
:10033000F0B486B00224019408240294202403948B
:10034000802404940A9CE40B0594B0EB510F14D85C
:100350004C0CA04217D2012501AF57F82540B1FB44
:10036000F4F4260C84420AD386420DD90135052DBA
:10037000F3D1002006B0F0BC70470020FAE700205F
:10038000F8E70120F6E700252AB106A901EB85016F
:1003900051F8141C1160002BF3D01D600120E9E717
:1003A000014B1860704700BF68044020024B1B6877
:1003B00003EBC0104254704768044020024B1B6896
:1003C00003EBC010405C7047680440202DE9F04703
:1003D0008418802C02DDC0F18004E2B222B3CD0883
:1003E000A1EBC501012606FA01F1CEB2012B1DD009
:1003F000002B35D0022B17D10138C7B2D419E4B283
:10040000DFF890A04FF00009DFF88C8021462846E5
:10041000D04786EA00024B46D2B221462846C04762
:10042000013CE4B2BC42F1D1BDE8F0870138C7B26B
:10043000D419E4B2DFF85CA04FF00009DFF858806F
:1004400021462846D04746EA00024B46D2B2214612
:100450002846C047013CE4B2BC42F1D1BDE8F08778
:100460000138C7B2D419E4B2DFF82880CE43DFF8F0
:10047000289021462846C04706EA00020023D2B24F
:1004800021462846C847013CE4B2BC42F1D1BDE850
:10049000F08700BFCD064000C90540002DE9F843B4
:1004A0009DF820708BB11C46904606464D1EEDB25D
:1004B0002C44E4B2DFF818903B46424621463046D1
:1004C000C847013CE4B2AC42F6D1BDE8F88300BFB6
:1004D000CD0340002DE9F04F83B004468846914695
:1004E0009B465B7A9BF808200021009149464046D4
:1004F000214DA8479BF8003013B103B0BDE8F08F41
:100500009BF80820D30812F0070F18BF01339BF89F
:1005100009A09BF80A70E71B17FB0AF717FB03F704
:10052000DBF8043013FA87F71FE06400E4B201350A
:10053000EBB29E4210D9EBB208EB0300C0B213F04D
:10054000070F08BF17F8014B14F0800FEDD0012200
:1005500049460A4B9847E8E709F101095FFA89F92A
:100560000AF1FF3A1AF0FF0AC7D09BF80860002E84
:10057000F2D000252C46DEE79D04400069064000CD
:100580002DE9F843044690461D4689460D4F0E4618
:1005900008E06A7A013242445FFA82F8B14614F800
:1005A000013F6BB120780A28F3D00D28F7D02B46F5
:1005B00042464946B8472B7A99445FFA89F9EEE7F3
:1005C000BDE8F883D504400070B504460D461646D4
:1005D0001BB90D4B9847B04215D0324629462046EC
:1005E0000A4B984704F00F0040F0B000084CA047B9
:1005F000C5F3021040F01000A04705F00F00A0471F
:100600003046044B984770BDBD034000AD03400029
:10061000D9064000F90840002DE9F0410D480E4B85
:1006200098470E4B984740200D4B984700254FF0B8
:1006300001082F460B4E002443463A46E1B22846B5
:10064000B0470134802CF7D10135EDB2042DF2D141
:10065000BDE8F0816C044020A10340001907400070
:10066000D9064000C9054000C3092AD11F2928D84E
:100670002DE9F04114460546CE08A1EBC601012242
:1006800002FA01F75FFA87F8014630460D4B9847AA
:100690000246012C09D064B1022C0ED00023294659
:1006A0003046094CA047BDE8F08148EA0002D2B2CA
:1006B000F4E720EA0702D2B2F0E788EA0002D2B2F9
:1006C000ECE77047BD034000C905400008B5014B89
:1006D000984708BDBD03400038B505460822094BC0
:1006E0005A63094C01212046084B984701231A46BA
:1006F00029462046064CA0474FF4FD70054B98470D
:1007000038BD00BF00100E4000800040D9014000FD
:10071000EF014000010040202DE9F843664D4FF401
:1007200000362E61C5F8A060644B08271F61C3F82E
:10073000A0706E66C5F890606E656E62C5F88060E8
:100740002A6F22F400322A676A6F22F400326A6745
:100750005F66C3F890705F655F62C3F880701A6F60
:1007600022F008021A675A6F22F008025A671F60C7
:100770002E601F632E63DFF87C8100234FF480021C
:100780004FF0805140464E4CA04700234FF40012DA
:100790004FF080514046A04700234FF000724FF0C9
:1007A00080514046A04700234FF480024FF0805113
:1007B0004046A04700234FF400124FF080514046BE
:1007C000A04700234FF000724FF080514046A047F1
:1007D0003C4C4FF00209C4F800904FF08008C4F878
:1007E0000080636843F0010363603A4601212046BC
:1007F000354B9847002201212046344B9847002270
:1008000001212046324B9847636823F0020363605E
:100810000022012120462F4B9847636823F0800374
:100820006360636843F0100363602B492B482C4BD3
:100830009847C2B2012120462A4B984720462A4BAE
:100840009847012323606E6340F6B830274CA047D9
:100850002E6340F6B830A0472E63A820244CA04752
:100860001F20A047D320A0470020A0474020A0473A
:10087000A120A047C820A047DA20A0474846A047AB
:100880008120A0478F20A047A420A047A620A047F2
:10089000D520A0474046A0478D20A0471420A04760
:1008A000DB20A0474020A047D920A047F120A04747
:1008B000AF20A047BDE8F88300120E4000100E40A4
:1008C000FD0B4000008000405F024000230240001A
:1008D00041024000A502400080D1F00840420F00D4
:1008E000B9024000CF024000AD01400001004020AD
:1008F000D906400000140E4038B505460822094BC1
:100900001A63094C01212046084B984701231A46D7
:1009100029462046064CA0474FF4FD70054B9847EA
:1009200038BD00BF00100E4000800040D9014000DB
:10093000EF0140000100402010B51048104B9847CF
:100940003E2100200F4B98470F4CA0470028FCD0B9
:100950000E4B98470E4A0F4B9A620F4CA047002847
:10096000FCD002200D4B984700200D4B98470D4BB3
:1009700098470248024B984710BD00BF00A3E11101
:10098000011440008D0E4000E10E4000F10E4000C9
:10099000013F182000060E40010F4000F10D4000FD
:1009A000290E4000F5124000F8B54FF40042484BC4
:1009B0005A60BFF34F8FBFF36F8F464B0022C3F8CF
:1009C00050225A6942F400325A61BFF34F8FBFF38D
:1009D0006F8FD3F88070C7F34E3607F007000430EE
:1009E000C7F3C907B7FA87FE0EF01F0EBFF34F8F8C
:1009F0004FF0FF3404FA00FC06FA00F004FA0EF49B
:100A000007FA0EFE1D463A46734640EA0301C5F852
:100A10006012013A2344B2F1FF3FF6D1013E604437
:100A2000B6F1FF3FEFD1BFF34F8F2A4B5A6942F423
:100A300080325A61BFF34F8FBFF36F8F264A274929
:100A40005160A1F580715160BFF34F8FBFF36F8F7D
:100A5000D3F8902222F00102C3F89022D3F8942216
:100A600022F00102C3F89422BFF34F8FBFF36F8FC0
:100A70000A201B4CA0470B20A0470C20A0471020A9
:100A8000A0471120A047174B4FF480721A61C3F89A
:100A9000A0201A63A3F580634FF400625A61C3F883
:100AA000A0205A66C3F890205A651A62C3F88420C1
:100AB000196F21F400611967596F21F400615967BA
:100AC000C3F8C020C3F8D420C3F8B020F8BD00BFDD
:100AD00050180E4000ED00E0000C0E400C08005ACB
:100AE000110F400000120E40C0F8841053004FF464
:100AF0000042B2FBF3F2013AC2F30D02C0F88C20BF
:100B0000704701637047416370474264B1F1C05F51
:100B10003AD013D8B1F1006F25D0B1F1805F0AD17E
:100B2000036F13430367436F416F0B4023EA0203D4
:100B30004367426070470029FBD17047B1F1205FE5
:100B400021D009D8B1F1005FF3D1036F13430367DC
:100B5000436F13434367ECE7B1F1405F13D0B1F14A
:100B6000605F10D0E5E710B4016F046FD3432140FC
:100B70001C4619400167436F416F0B402340436798
:100B800042605DF8044B7047036F016F0B4023EA2E
:100B900002030367436F13434367CAE7416412F0DC
:100BA000010F0DD1016612F00A0F0BD0016212F095
:100BB000020F09D112F0080F08D0C0F8841005E028
:100BC0004166F0E74162F2E7C0F8801041610160E0
:100BD000704710B4019C41644CB901664BB101658A
:100BE0004AB94163016101605DF8044B7047416699
:100BF000F4E74165F4E70163F4E7000070B582B003
:100C0000054616461C46B1F1005F14D00AD9B1F171
:100C1000405F24D0B1F1605F21D0B1F1205F17D0E7
:100C200000201AE0B1F1805F05D0B1F1C05F02D0C1
:100C3000B1F1006FF4D132462846114B984714F0B9
:100C4000010F02D12E66012007E06E66012004E04C
:100C50001A4631460B4B9847012002B070BD04F094
:100C600001030093C4F38003B1F1605F14BF00225D
:100C7000012231462846044CA0470120EDE700BF81
:100C80000B0B40009D0B4000D30B400012F0100FE7
:100C900012D0C0F8B01012F0200F07D0C0F8D41056
:100CA00012F0400F05D0C0F8C0107047C0F8D01047
:100CB000F6E7C0F8C4107047C0F8B410704701647C
:100CC0007047C06C7047806C704700002DE9F041A0
:100CD000044688460E4B9847054620460D4B9847DC
:100CE000054013D00C4C04F1600603E0B4420DD073
:100CF00010345DB120684045F8D161682942F5D0D3
:100D0000E3689847636825EA0305EFE7BDE8F081EB
:100D1000C30C4000C70C40006C064020F8B5184CCE
:100D20002668062E2AD84FF0000C6446154F04E0C2
:100D30000134E4B2A446A64209D3A64625017D5952
:100D40008D42F5D107EB04156D689542F0D10D4D3C
:100D50004FEA0E1E05EB0E0445F80E106260A3600C
:100D60000699E1600136664505D011461A46064BE4
:100D700098470020F8BD02490E60F6E70120F8BD53
:100D8000DC0640206C0640208D0C400008B50A218E
:100D90000148024B984708BD000E0E40CD0C4000A4
:100DA00008B50B210148024B984708BD00100E40C2
:100DB000CD0C400008B50C210148024B984708BDF6
:100DC00000120E40CD0C400008B510210148024B26
:100DD000984708BD00140E40CD0C400008B5112105
:100DE0000148024B984708BD00160E40CD0C40004C
:100DF000032811D0042812D002280CBF4FF48071B0
:100E00000021084A136B23F440730B431363936E62
:100E100013F0080FFBD070474FF44071F1E74FF427
:100E20000071EEE700060E40174A136B23F07003C3
:100E300018431063936E13F0080F0AD14FF48053D8
:100E400011498A6E12F0080F03D1013BF9D101203C
:100E500070470D4A136B23F0030343F0020313633F
:100E6000936E13F0080F0AD14FF4805306498A6E2F
:100E700012F0080F05D1013BF9D101207047002085
:100E800070470020704700BF00060E40A0B90E4812
:100E9000036A090289B20D4A1A400D4B13431943E4
:100EA00001620246936E13F0010FFBD0064A116AED
:100EB000084B0B431362704703490B6A064A1A40FA
:100EC000064B13430B62704700060E40FCFFC8FF41
:100ED0000100370000003701FCFFC8FE02003701A7
:100EE000024B986E00F48030704700BF00060E4041
:100EF0004FF00052014B9A62704700BF00060E404F
:100F0000024B986E00F00200704700BF00060E40D2
:100F10003F281ED81F280CD8114B9A690123834003
:100F2000934318D0012303FA00F00D4B1861002001
:100F3000704720380A4BD3F808210123834093439C
:100F40000BD0012303FA00F0054BC3F80001002089
:100F5000704701207047002070470020704700BF95
:100F600000060E4070470000104A136F23F4C003C0
:100F700043F480031367116A0D4B0B431362936EA6
:100F800013F0080FFBD04FF4FA7300BF013BFCD104
:100F9000064A136A13F0080FFBD0044A136F23F4B8
:100FA000C00343F480031367704700BF00060E4080
:100FB000040037002DE9F843431E042B00F207819B
:100FC000DFE813F00500050015001500F600814A62
:100FD000136923F00403136101227F4B1A70BFF3DE
:100FE0005F8F62B6BFF34F8F30BFBDE8F883044612
:100FF00003280CBF00204FF40010784B984772B6BE
:10100000BFF35F8F0022744B1A700122744B1A7069
:10101000744B1F6A1D6B744AD2F800809E6A734A33
:101020003A431A6205F00309B9F1010F40F28980D1
:1010300025F0030141F0010119631A46936E13F084
:10104000080FFBD011F0700F08D021F07001654B34
:1010500019631A46936E13F0080FFBD0644B984740
:10106000604A936E13F4003FFBD05E4A116A614BF5
:101070000B4043F45C131362936E13F4803FFBD078
:1010800028F47063584A1360042C5CD0524C01233E
:101090002370BFF35F8F62B6574B984772B6BFF3AA
:1010A0005F8F0023237017F0020F55D04D4A136A4B
:1010B00052491940524B0B431362116A514B0B407A
:1010C00043F45C131362504B3340002B6ED046F058
:1010D0000056444B9E620221B9F1020F04D1414AED
:1010E000936E13F0020FFBD03E4A136B23F0700394
:1010F00005F0700003431363936E13F0080FFBD0E9
:10110000394BC3F80080A3F5C0631D631A46936E84
:1011100013F0080FFBD0334A936E0B42FCD0002231
:101120002F4B1A70394B1B681BB198470022374B65
:101130001A600122284B1A70BFF35F8F62B6BDE8B8
:10114000F88329467EE7A2F5C062116A304B0B4056
:1011500043F45C13136299E717F0010FB3D0214BEE
:101160001B6A13F0010F0BD11E490B6A294A1A4062
:10117000294B13430B620A46936E13F0010FFBD009
:10118000184B1B6A13F0807F08D1164A116A234B53
:101190000B431362936E13F4803FFBD0114A116A24
:1011A000184B0B4043F45C1313628CE7002193E768
:1011B000084A136943F004031361194A194B1A6072
:1011C0000122054B1A70BFF35F8F62B630BFBDE8D6
:1011D000F88300BF00ED00E018004020650F4000DC
:1011E000E006402000060E40000C0E4008003700CC
:1011F000F10E4000FFFFC8FE690F4000FCFFC8FE73
:101200000200370187FFC8FF0000FF07E406402007
:10121000FEFFC8FFFCFFC8FF0100370000003701D8
:10122000040000A510180E40FEE7000000B583B0D2
:10123000254B264A9A4210D0254B234A9A420CD27B
:10124000013B9B1A23F00303043313441F4951F855
:10125000040B42F8040B9A42F9D11E4B1E4A9A42E3
:101260000AD2013B9B1A23F00303043313440021E9
:1012700042F8041B9342FBD1184A194B23F07F0319
:101280009360EFF31083B3FA83F35B09019372B6B3
:10129000BFF35F8F0022134B1A700199124A136833
:1012A00043F470031360BFF34F8FBFF36F8F29B107
:1012B00001220C4B1A70BFF35F8F62B60B4B98473D
:1012C0000B4B9847FEE700BF000040206C24400015
:1012D0004C044020140740204C04402000ED00E066
:1012E000000040001800402088ED00E07D1840001C
:1012F000651740003B4B1B6B03F00303012B1DD014
:1013000083B1022B36D0374B1B6B03F07003702B6D
:101310005FD0344B1A6B3449C2F302120B68D340CE
:101320000B607047314B5B6913F0800F14BF4FF4B3
:1013300000424FF4FA422C4B1A60E4E7294B1B6A37
:1013400013F0807F03D02A4A274B1A60DBE7294A33
:10135000254B1A60234B1B6A03F07003102B05D03A
:10136000202BD0D1224A204B1A60CCE7224A1E4BB8
:101370001A60C8E71B4B1B6A13F0807F16D01C4A0B
:10138000194B1A60174B1B6B03F00303022BBAD1E6
:10139000144A916A926A1448C1F30A41036801FB36
:1013A0000333D2B2B3FBF2F30360ACE7114A0E4B46
:1013B0001A600C4B1B6A03F07003102B05D0202B16
:1013C000E0D10B4A084B1A60DCE70B4A064B1A6067
:1013D000D8E7054A13680949A1FB03135B081360AA
:1013E000704700BF00060E401C00402010180E4041
:1013F000001BB70000093D0000127A00ABAAAAAAA0
:10140000164B984213D9164B984215D9154B984252
:1014100016D9154B984217D9144B984218D9144B2A
:10142000984294BF134A144A144B1A6070474FF005
:101430008062124B1A607047114A104B1A60704755
:10144000104A0E4B1A6070470F4A0C4B1A607047D7
:101450004FF00422094B1A60704700BFBFF35E01D2
:101460007FE7BD023FDB1C04FFCE7B05BFC2DA066F
:101470007FB639080005000400060004000C0E4089
:10148000000100040002000400030004034A137872
:10149000B3FA83F35B091370704700BFE80640207E
:1014A000034A1378B3FA83F35B091370704700BFE4
:1014B000E9064020034A1378B3FA83F35B091370FB
:1014C000704700BFEA06402000B583B001210748FD
:1014D000074B98470190019B064A1378B3FA83F3B0
:1014E0005B09137003B05DF804FB00BF00C000404F
:1014F00029034000EB06402000B583B001210748D6
:10150000074B98470190019B064A1378B3FA83F37F
:101510005B09137003B05DF804FB00BF00000140DD
:1015200029034000EC06402000B583B001210748A4
:10153000074B98470190019B064A1378B3FA83F34F
:101540005B09137003B05DF804FB00BF004001406D
:1015500029034000ED0640202DE9F04385B0064602
:101560000C46174698460846184B9847184D009564
:1015700002AB03AA29464046DFF86C90C847029A9E
:1015800042F4804239463046124B9847039AB5FBE5
:10159000F2F2B2FBF8F2394630460F4B984763B28D
:1015A0005B0904F01F04012202FA04F40B4A42F81A
:1015B0002340102239463046094B98473946304679
:1015C000084B984705B0BDE8F08300BF110F4000FD
:1015D00000A3E111F70240001903400000E100E020
:1015E0002103400011034000310340002DE9F04188
:1015F00082B00C204E4EB0474E4F00234FF4807205
:101600004FF0405138464C4DA8470A20B0474B4C4C
:10161000002301224FF040512046A8470C20B0473C
:1016200000234FF080424FF060513846A8470B200E
:10163000B047002304224FF040514148A8470A20F8
:10164000B0471020B0470C20B0470A20B04709230C
:101650004FF400624FF020512046A84764224FF417
:1016600000612046DFF8F880C047364E09234FF06E
:1016700080524FF020513046A84764224FF08051ED
:101680003046C04709234FF000424FF02051384602
:10169000A84764224FF000413846C04709234FF461
:1016A00000224FF020512046A84764224FF4002129
:1016B0002046C047244B009370234FF080521021E6
:1016C0003046224DA847224B009350234FF0004252
:1016D0000C213846A8471F4B009370234FF400227B
:1016E0000A212046A8474FF4006120461A4DA8471A
:1016F0004FF080513046A8474FF000413846A84788
:101700004FF400212046A847144B4FF480321A6052
:10171000802283F810234FF48051196083F80C2342
:101720004FF48061196083F80A2302B0BDE8F081AC
:10173000110F400000120E40FD0B4000000E0E4045
:1017400000100E4000140E408D1440001D0D40008E
:10175000A1144000B5144000BF0C400000E100E0BF
:10176000E90A400008B54FF400422C4B5A602C4B5C
:1017700098472C4B98472C4B98470523012218215A
:101780002A482B4CA0470A2301221B212948A047A5
:1017900001231A4630212848A047284B9847284B58
:1017A0000A2205212748284CA047284C284E294DBD
:1017B00011E001213046284B984716E04FF0804158
:1017C0002846264B98471CE004212548224B984781
:1017D0000220244B984723783BB1234B1B78002BE6
:1017E000E7D0012130461D4B9847204B1B7843B171
:1017F0001F4B1B78002BE1D04FF080412846164B41
:1018000098471C4B1B78002BE2D01B4B1B78002BFE
:10181000DAD004211248114B9847D9E750180E40EE
:10182000A909400039094000ED15400000C0004002
:1018300059154000000001400040014019064000D9
:101840000C0040203424400081054000E806402080
:10185000000E0E4000120E40070B4000030B40002C
:1018600000100E40B50F4000EB064020E906402076
:10187000EC064020EA064020ED06402070B50F4EF1
:101880000F4D761BB61018BF002405D0013455F853
:10189000043B9847A642F9D10A4E0B4D761B00F047
:1018A000D3FDB61018BF002406D0013455F8043B10
:1018B0009847A642F9D170BD70BD00BF54244000C6
:1018C000542440005C24400054244000024B13B1D7
:1018D000024800F005B8704700000000ED18400015
:1018E000002301461A46184600F01EB838B50A4CC7
:1018F0000A4D641BA4100AD004F18043013B05EBA0
:101900008305013C55F804399847002CF9D1BDE80E
:10191000384000F0A3BD00BF6C24400068244000A4
:10192000704700BF704700BF2DE9F8432C4D0646B5
:10193000286898460F469146FFF7F2FF294B1C682E
:10194000D4F84831002B3ED05A681F2A1CDC02F123
:10195000010E76B103EB82010124C1F88890D3F81F
:10196000880194402043022EC3F88801C1F8088101
:1019700023D00232C3F804E0286843F82270FFF74E
:10198000D1FF0020BDE8F883174B0BB34FF4C870AC
:10199000AFF300800346D8B1D4F84821026000219B
:1019A00041600A46C4F848014FF0010EC0F88811A2
:1019B000C0F88C11002EDCD0CCE7D3F88C110C438E
:1019C000C3F88C41D5E704F5A673C4F84831BBE7EA
:1019D0002868FFF7A7FF4FF0FF30BDE8F88300BF8E
:1019E00048044020442440000000000000000000A3
:1019F00000000000000000000000000000000000E7
:101A00000000000000000000000000003000300076
:101A100030003000300030000000300030000000A6
:101A200000000000000000006C006C006C006C0006
:101A300000000000000000000000000000000000A6
:101A4000000000000000280028007C00280028007A
:101A50007C002800280000000000000000000000BA
:101A600010003C0040002000100008000400780036
:101A700010000000000000000000000000007C00DA
:101A8000A400A80050002800540094008800000022
:101A90000000000000000000600090009000900036
:101AA00060009400880088007000000000000000C2
:101AB00000000000100010001000000000000000F6
:101AC0000000000000000000000000000000000016
:101AD000080010002000200020002000200020002E
:101AE00010000800000000000000000020001000AE
:101AF0000800080008000800080008001000200086
:101B0000000000000000280010007C0010002800E9
:101B100000000000000000000000000000000000C5
:101B20000000000000000000100010001000FE0087
:101B30001000100010000000000000000000000075
:101B40000000000000000000000000000000000095
:101B50001000300020000000000000000000000025
:101B60000000000000007C000000000000000000F9
:101B70000000000000000000000000000000000065
:101B800000000000000030003000000000000000F5
:101B900000000000000008000800100010002000F5
:101BA0002000400040000000000000000000000095
:101BB0000000780084008C009400A400C40084001D
:101BC000780000000000000000000000000010008D
:101BD0003000500010001000100010007C000000C9
:101BE00000000000000000000000700088000800F5
:101BF0001000200040008000F800000000000000FD
:101C0000000000000000700088000800300008009C
:101C100008008800700000000000000000000000C4
:101C2000000008001800280048008800FC00080098
:101C30000800000000000000000000000000780024
:101C400080008000F000080008000800F00000009C
:101C50000000000000000000000030004000800094
:101C6000F00088008800880070000000000000007C
:101C7000000000000000F800080010001000200024
:101C800020004000400000000000000000000000B4
:101C900000007000880088007000880088008800BC
:101CA0007000000000000000000000000000700054
:101CB000880088008800780008001000600000009C
:101CC00000000000000000000000000000003000E4
:101CD0003000000000003000300000000000000074
:101CE0000000000000000000000030003000000094
:101CF00000003000300060004000000000000000E4
:101D0000000000000800100020004000200010002B
:101D100008000000000000000000000000000000BB
:101D2000000000007C0000007C00000000000000BB
:101D30000000000000000000000000004000200043
:101D4000100008001000200040000000000000000B
:101D500000000000000030004800080010002000D3
:101D60000000000020000000000000000000000053
:101D7000000000003C0042009A00AA00AA00BE0039
:101D8000800078000000000000000000000010004B
:101D90002800280044007C00440044004400000067
:101DA00000000000000000000000F8008400840033
:101DB000F800840084008400F800000000000000A7
:101DC0000000000000003C00400080008000800017
:101DD000800040003C000000000000000000000007
:101DE0000000F000880084008400840084008800E3
:101DF000F000000000000000000000000000F800FB
:101E000080008000F000800080008000F80000006A
:101E100000000000000000000000F80080008000CA
:101E2000F8008000800080008000000000000000BA
:101E30000000000000003C004000800080009C008A
:101E40008400440038000000000000000000000092
:101E50000000880088008800F8008800880088005A
:101E60008800000000000000000000000000F800F2
:101E7000200020002000200020002000F8000000AA
:101E800000000000000000000000F800080008004A
:101E90000800080008000800F00000000000000032
:101EA000000000000000840088009000A000D00026
:101EB0008800840084000000000000000000000092
:101EC0000000800080008000800080008000800092
:101ED000FC00000000000000000000000000840082
:101EE000CC00CC00B400B400840084008400000066
:101EF000000000000000000000008400C400C400D6
:101F0000A400A400940094008C00000000000000D5
:101F10000000000000007800840084008400840039
:101F20008400840078000000000000000000000031
:101F30000000F800840084008400F8008000800025
:101F40008000000000000000000000000000780099
:101F500084008400840084008400840078002000D1
:101F600018000000000000000000F8008400840059
:101F70008400F80088008400840000000000000055
:101F80000000000000007C0080008000600018005D
:101F900004000400F8000000000000000000000041
:101FA0000000F80020002000200020002000200079
:101FB000200000000000000000000000000084007D
:101FC0008400840084008400840084007800000081
:101FD0000000000000000000000084008400840075
:101FE00048004800480030003000000000000000B9
:101FF0000000000000008800A800A800A800A800B9
:10200000A800500050000000000000000000000088
:102010000000880088005000200020005000880048
:1020200088000000000000000000000000008800A0
:102030008800880050005000200020002000000090
:1020400000000000000000000000FC000400080088
:102050001000200040008000FC0000000000000094
:1020600000000000700040004000400040004000C0
:1020700040004000400040007000000000000000F0
:102080004000400020002000200010001000100040
:1020900008000800000000000000000038000800F0
:1020A00008000800080008000800080008000800F0
:1020B000380000000000000010002800440000006C
:1020C0000000000000000000000000000000000010
:1020D0000000000000000000000000000000000000
:1020E00000000000380000000000000000000000B8
:1020F00000002000100000000000000000000000B0
:1021000000000000000000000000000000000000CF
:102110000000700008000800780088007C000000C3
:102120000000000000000000800080008000F80037
:102130008400840084008400F80000000000000097
:102140000000000000000000000078008000800017
:102150008000800078000000000000000000000007
:102160000400040004007C008400840084008C00CF
:1021700074000000000000000000000000000000EB
:10218000000078008400FC00800080007C000000DB
:1021900000000000000000001C0020002000FC00E7
:1021A0002000200020002000FC00000000000000B3
:1021B000000000000000000000007C00840084009B
:1021C000840084007C00040078000000000000000F
:1021D000800080008000B800C40084008400840077
:1021E000840000000000000000000000000010005B
:1021F0000000700010001000100010007C000000B3
:10220000000000000000000000000800000078004E
:102210000800080008000800080008000800700016
:102220000000000080008000800088009000A00076
:10223000D0008800880000000000000000000000BE
:10224000E0002000200020002000200020002000CE
:10225000F800000000000000000000000000000086
:102260000000A400FC00A400A400A400A40000003E
:102270000000000000000000000000000000B800A6
:10228000C40084008400840084000000000000007A
:1022900000000000000000000000780084008400BE
:1022A00084008400780000000000000000000000AE
:1022B000000000000000B800C40084008400840016
:1022C000F800800080000000000000000000000016
:1022D00000007C0084008400840084007C000400F2
:1022E0000400000000000000000000000000D80012
:1022F0006000400040004000F000000000000000CE
:102300000000000000000000000078008000400095
:1023100030000800F0000000000000000000000095
:10232000000000002000FC00200020002000200011
:102330001C00000000000000000000000000000081
:102340000000880088008800880088007C00000069
:1023500000000000000000000000000000008400F9
:1023600084008400480048003000000000000000A5
:10237000000000000000000000008800A800A80085
:10238000A800A800500000000000000000000000AD
:1023900000000000000088005000200020005000D5
:1023A00088000000000000000000000000000000A5
:1023B0000000840084004800480030001000200025
:1023C0004000000000000000000000000000F800D5
:1023D0000800100020004000F8000000000000008D
:1023E000000000001000200020001000200020004D
:1023F000100020002000100000000000000000007D
:10240000100010001000100000000000100010006C
:10241000100010000000000000000000200010006C
:1024200010002000100010002000100010002000FC
:102430000000000035487A203130487A2031487A4F
:102440000000000020004020F8B500BFF8BC08BC28
:102450009E467047CD18400065014000F8B500BFAA
:0C246000F8BC08BC9E46704741014000DB
:10246C00BFF35F8F0138FBD1704700000000000004
:10247C00EC1940000A0E207D0100000000093D000F
:10248C00000000000C03402074034020DC034020BB
:10249C000000000000000000000000000000000030
:1024AC000000000000000000000000000000000020
:1024BC000000000000000000000000000000000010
:1024CC000000000000000000000000000000000000
:1024DC0000000000000000000000000000000000F0
:1024EC0000000000000000000000000000000000E0
:1024FC0000000000000000000000000000000000D0
:10250C0000000000000000000000000000000000BF
:10251C0000000000000000000000000000000000AF
:10252C00000000000000000001000000000000009E
:10253C000E33CDAB34126DE6ECDE05000B00000063
:10254C00000000000000000000000000000000007F
:10255C00000000000000000000000000000000006F
:10256C00000000000000000000000000000000005F
:10257C00000000000000000000000000000000004F
:0C28AC000000000000000000F0064020CA
:040000050040122D78
:00000001FF
